:020000020000FC
:100000008ED006E000930000009301000DE2009303
:10001000003E01E30093013E02E30093023E08E349
:100020000093033E03E30093043E03E40093053E84
:10003000C0E0DEE3B6E020D032EC55D009918AD0A2
:10004000BA9531EC50D0099185D0BA9530EC4BD0AF
:10005000099180D0BA9535EC46D009917BD0BA95FC
:1000600034EC41D0099176D0BA9533EC3CD009916B
:1000700071D0BA9505D0DCCF34E435D00DD00895D9
:1000800039E831D009D00895099A0A9A44D00998DC
:1000900042D00A9840D0089509980A983CD00A9A0C
:1000A0003AD0099A38D0089528E0369570F009982A
:1000B00032D00A9A30D00A982ED02A95B1F7099AF0
:1000C0000A9A29D009980A980895099A24D00A9A78
:1000D00022D00A9820D02A9541F7099A0A9A1BD073
:1000E00009980A980895D0DFDFDF089507D0219797
:1000F000E9F7089503D00A95E9F70895CF93DF93C0
:10010000CFEBD9E02197F1F7DF91CF91089503D09C
:100110000A95E9F70895000000000000089508ED31
:1001200004BF01E00093610008953F0006005B00FA
:100130004F0066006D007D0007007F006F007700B4
:100140007C0039005E007900710040000000EAE2A6
:10015000F1E008950D3229F0033431F0003239F026
:1001600009C0EAE4F1E011C0E2E4F1E00EC0ECE421
:10017000F1E00BC0EAE2F1E0A0E30A1B31F0AA27AC
:10018000EE5FFF4FA395A017D9F73491B33019F064
:0E019000AADF82DF08953068A6DF7EDF0895C3
:00000001FF
